:020000040800F2
:1000000000A00020D10300081D0400081D04000802
:100010001D0400081D0400081D0400080000000065
:100020000000000000000000000000001D040008A7
:100030001D040008000000001D0400081D04000845
:100040001D0400081D0400081D0400081D0400080C
:100050001D0400081D0400081D0400081D040008FC
:100060001D0400081D0400081D0400081D040008EC
:100070001D0400081D0400081D0400081D040008DC
:100080001D0400081D0400081D0400081D040008CC
:100090001D0400081D0400081D0400081D040008BC
:1000A0001D0400081D0400081D0400081D040008AC
:1000B0001D0400081D0400081D0400081D0400089C
:1000C0001D0400081D0400081D0400081D0400088C
:1000D0001D0400081D0400081D0400081D0400087C
:1000E0001D0400081D0400081D0400081D0400086C
:1000F0001D0400081D0400081D0400081D0400085C
:100100000000000000000000000000001D040008C6
:100110001D0400081D0400081D0400081D0400083B
:100120001D0400081D0400081D0400081D0400082B
:100130001D0400081D04000800000000000000006D
:100140001D0400081D0400081D0400080000000034
:10015000000000000000000000000000000000009F
:1001600000000000000000001D0400081D0400083D
:100170001D04000800000000000000000000000056
:10018000000000001D0400082A482B492B4A2C4B74
:1001900010B4446944F400244461446944F4800484
:1001A0004461446944F400144461086820F0FF008D
:1001B0000860086840F055000860888820F00F004B
:1001C0000004000C8880886840F0FF008860C868E0
:1001D00020F0FF00C860116821F030011160116843
:1001E00041F010011160918821F004010904090C0B
:1001F0009180916841F030019160D16821F0300127
:10020000D1601A6822F440521A601A6842F480528F
:100210001A609A8822F040021204120C9A809A689E
:1002200042F440529A60DA685DF8044B22F440527E
:10023000DA607047001002400008004800140048CF
:100240000010004808B500F003F8FFF79DFFFEE737
:100250001A481B4A41694FF0904341F40031416113
:10026000196841F400211960998821F4007109048A
:10027000090C9980D96821F44021D960996841F42A
:1002800040219960596A41F070015962836943F4D1
:1002900080438361136843F001031360136823F400
:1002A00080531360516840F2A31321F44051516010
:1002B0009381136843F008031360704700100240F5
:1002C0000038014082B00023264A0093019313684E
:1002D00043F48033136003E0009BB3F5A06F09D0B3
:1002E000136803F400330193009B01330093019BD7
:1002F000002BF1D01B4B1B6813F4003318BF0123F4
:100300000193019B012B01D002B07047164A154B97
:10031000122111605A685A605A685A605A6842F449
:1003200080625A605A6822F47C125A605A6842F419
:10033000E8125A601A6842F080721A6019460B6817
:10034000084A9B01FBD5536823F0030353605368AD
:1003500043F002035360536803F00C03082BFAD1F7
:1003600002B07047001002400020024008B5144B54
:1003700014491868144A40F0010018605868014098
:100380005960196821F0847121F48031196019686D
:1003900021F480211960596821F4FE015960D96A5D
:1003A00021F00F01D962186B002102401A63996095
:1003B000FFF788FF054B4FF000629A6008BD00BF51
:1003C000001002400CC07FF8CCFC00FF00ED00E004
:1003D000002100F004B80C4B5B58435004310B482B
:1003E0000B4B42189A42FFF4F6AF0A4A00F003B8EA
:1003F000002342F8043B084B9A42FFF4F9AFFFF7A1
:10040000B5FFFFF71FFF7047200400080000002021
:10041000000000200000002000000020FFF7FEBFC9
:0400000508000000EF
:00000001FF
